{
  "_format": "hh-sol-artifact-1",
  "contractName": "OpenAgentRegistry",
  "sourceName": "contracts/OpenAgentRegistry.sol",
  "abi": [
    {
      "inputs": [],
      "stateMutability": "nonpayable",
      "type": "constructor"
    },
    {
      "anonymous": false,
      "inputs": [
        {
          "indexed": true,
          "internalType": "uint256",
          "name": "id",
          "type": "uint256"
        },
        {
          "indexed": true,
          "internalType": "address",
          "name": "seller",
          "type": "address"
        }
      ],
      "name": "AgentDelisted",
      "type": "event"
    },
    {
      "anonymous": false,
      "inputs": [
        {
          "indexed": true,
          "internalType": "uint256",
          "name": "id",
          "type": "uint256"
        },
        {
          "indexed": true,
          "internalType": "address",
          "name": "seller",
          "type": "address"
        },
        {
          "indexed": false,
          "internalType": "uint256",
          "name": "price",
          "type": "uint256"
        }
      ],
      "name": "AgentListed",
      "type": "event"
    },
    {
      "anonymous": false,
      "inputs": [
        {
          "indexed": true,
          "internalType": "uint256",
          "name": "id",
          "type": "uint256"
        },
        {
          "indexed": true,
          "internalType": "address",
          "name": "buyer",
          "type": "address"
        },
        {
          "indexed": false,
          "internalType": "uint256",
          "name": "price",
          "type": "uint256"
        }
      ],
      "name": "AgentSold",
      "type": "event"
    },
    {
      "anonymous": false,
      "inputs": [
        {
          "indexed": true,
          "internalType": "uint256",
          "name": "id",
          "type": "uint256"
        },
        {
          "indexed": true,
          "internalType": "address",
          "name": "winner",
          "type": "address"
        },
        {
          "indexed": false,
          "internalType": "uint256",
          "name": "amount",
          "type": "uint256"
        }
      ],
      "name": "AuctionSettled",
      "type": "event"
    },
    {
      "anonymous": false,
      "inputs": [
        {
          "indexed": true,
          "internalType": "uint256",
          "name": "id",
          "type": "uint256"
        },
        {
          "indexed": true,
          "internalType": "address",
          "name": "seller",
          "type": "address"
        },
        {
          "indexed": false,
          "internalType": "uint256",
          "name": "startTime",
          "type": "uint256"
        },
        {
          "indexed": false,
          "internalType": "uint256",
          "name": "endTime",
          "type": "uint256"
        }
      ],
      "name": "AuctionStarted",
      "type": "event"
    },
    {
      "anonymous": false,
      "inputs": [
        {
          "indexed": true,
          "internalType": "uint256",
          "name": "id",
          "type": "uint256"
        },
        {
          "indexed": true,
          "internalType": "address",
          "name": "bidder",
          "type": "address"
        },
        {
          "indexed": false,
          "internalType": "uint256",
          "name": "amount",
          "type": "uint256"
        }
      ],
      "name": "BidPlaced",
      "type": "event"
    },
    {
      "anonymous": false,
      "inputs": [
        {
          "indexed": true,
          "internalType": "address",
          "name": "user",
          "type": "address"
        },
        {
          "indexed": false,
          "internalType": "string",
          "name": "username",
          "type": "string"
        }
      ],
      "name": "IdentityClaimed",
      "type": "event"
    },
    {
      "inputs": [
        {
          "internalType": "uint256",
          "name": "",
          "type": "uint256"
        }
      ],
      "name": "auctions",
      "outputs": [
        {
          "internalType": "uint256",
          "name": "id",
          "type": "uint256"
        },
        {
          "internalType": "address payable",
          "name": "seller",
          "type": "address"
        },
        {
          "internalType": "uint256",
          "name": "highestBid",
          "type": "uint256"
        },
        {
          "internalType": "address payable",
          "name": "highestBidder",
          "type": "address"
        },
        {
          "internalType": "uint256",
          "name": "endTime",
          "type": "uint256"
        },
        {
          "internalType": "bool",
          "name": "active",
          "type": "bool"
        },
        {
          "internalType": "bool",
          "name": "settled",
          "type": "bool"
        }
      ],
      "stateMutability": "view",
      "type": "function"
    },
    {
      "inputs": [
        {
          "internalType": "uint256",
          "name": "_id",
          "type": "uint256"
        }
      ],
      "name": "buyAgent",
      "outputs": [],
      "stateMutability": "payable",
      "type": "function"
    },
    {
      "inputs": [
        {
          "internalType": "string",
          "name": "_username",
          "type": "string"
        }
      ],
      "name": "claimIdentity",
      "outputs": [],
      "stateMutability": "nonpayable",
      "type": "function"
    },
    {
      "inputs": [
        {
          "internalType": "uint256",
          "name": "_id",
          "type": "uint256"
        }
      ],
      "name": "delistAgent",
      "outputs": [],
      "stateMutability": "nonpayable",
      "type": "function"
    },
    {
      "inputs": [
        {
          "internalType": "address",
          "name": "",
          "type": "address"
        }
      ],
      "name": "identities",
      "outputs": [
        {
          "internalType": "string",
          "name": "username",
          "type": "string"
        },
        {
          "internalType": "bool",
          "name": "exists",
          "type": "bool"
        }
      ],
      "stateMutability": "view",
      "type": "function"
    },
    {
      "inputs": [
        {
          "internalType": "uint256",
          "name": "_price",
          "type": "uint256"
        }
      ],
      "name": "listAgent",
      "outputs": [
        {
          "internalType": "uint256",
          "name": "",
          "type": "uint256"
        }
      ],
      "stateMutability": "nonpayable",
      "type": "function"
    },
    {
      "inputs": [
        {
          "internalType": "uint256",
          "name": "",
          "type": "uint256"
        }
      ],
      "name": "listings",
      "outputs": [
        {
          "internalType": "uint256",
          "name": "id",
          "type": "uint256"
        },
        {
          "internalType": "address payable",
          "name": "seller",
          "type": "address"
        },
        {
          "internalType": "uint256",
          "name": "price",
          "type": "uint256"
        },
        {
          "internalType": "bool",
          "name": "active",
          "type": "bool"
        }
      ],
      "stateMutability": "view",
      "type": "function"
    },
    {
      "inputs": [],
      "name": "owner",
      "outputs": [
        {
          "internalType": "address",
          "name": "",
          "type": "address"
        }
      ],
      "stateMutability": "view",
      "type": "function"
    },
    {
      "inputs": [
        {
          "internalType": "uint256",
          "name": "_id",
          "type": "uint256"
        }
      ],
      "name": "placeBid",
      "outputs": [],
      "stateMutability": "payable",
      "type": "function"
    },
    {
      "inputs": [],
      "name": "platformFee",
      "outputs": [
        {
          "internalType": "uint256",
          "name": "",
          "type": "uint256"
        }
      ],
      "stateMutability": "view",
      "type": "function"
    },
    {
      "inputs": [
        {
          "internalType": "uint256",
          "name": "_id",
          "type": "uint256"
        }
      ],
      "name": "settleAuction",
      "outputs": [],
      "stateMutability": "nonpayable",
      "type": "function"
    },
    {
      "inputs": [
        {
          "internalType": "uint256",
          "name": "_duration",
          "type": "uint256"
        }
      ],
      "name": "startAuction",
      "outputs": [
        {
          "internalType": "uint256",
          "name": "",
          "type": "uint256"
        }
      ],
      "stateMutability": "nonpayable",
      "type": "function"
    },
    {
      "inputs": [
        {
          "internalType": "string",
          "name": "",
          "type": "string"
        }
      ],
      "name": "usernameToAddress",
      "outputs": [
        {
          "internalType": "address",
          "name": "",
          "type": "address"
        }
      ],
      "stateMutability": "view",
      "type": "function"
    }
  ],
  "bytecode": "0x608060405260196001556001600655600160075534801561001f57600080fd5b50336000806101000a81548173ffffffffffffffffffffffffffffffffffffffff021916908373ffffffffffffffffffffffffffffffffffffffff1602179055506121b08061006f6000396000f3fe6080604052600436106100c25760003560e01c80638da5cb5b1161007f578063de74e57b11610059578063de74e57b14610271578063f653b81e146102b1578063f825f143146102ef578063fa3ded901461032c576100c2565b80638da5cb5b146102015780639979ef451461022c578063b6f45f1114610248576100c2565b8063065de74c146100c757806326232a2e146101045780632e9936111461012f578063571a26a014610158578063631f109c1461019b5780636c1b97b8146101d8575b600080fd5b3480156100d357600080fd5b506100ee60048036038101906100e9919061140b565b610348565b6040516100fb9190611447565b60405180910390f35b34801561011057600080fd5b5061011961053d565b6040516101269190611447565b60405180910390f35b34801561013b57600080fd5b506101566004803603810190610151919061140b565b610543565b005b34801561016457600080fd5b5061017f600480360381019061017a919061140b565b61080c565b60405161019297969594939291906114be565b60405180910390f35b3480156101a757600080fd5b506101c260048036038101906101bd919061140b565b6108a8565b6040516101cf9190611447565b60405180910390f35b3480156101e457600080fd5b506101ff60048036038101906101fa9190611673565b6109e7565b005b34801561020d57600080fd5b50610216610c62565b60405161022391906116dd565b60405180910390f35b6102466004803603810190610241919061140b565b610c86565b005b34801561025457600080fd5b5061026f600480360381019061026a919061140b565b610ee1565b005b34801561027d57600080fd5b506102986004803603810190610293919061140b565b611040565b6040516102a894939291906116f8565b60405180910390f35b3480156102bd57600080fd5b506102d860048036038101906102d39190611769565b61109d565b6040516102e6929190611815565b60405180910390f35b3480156102fb57600080fd5b5061031660048036038101906103119190611673565b611156565b60405161032391906116dd565b60405180910390f35b6103466004803603810190610341919061140b565b61119f565b005b6000806007600081548092919061035e90611874565b9190505590506040518060e001604052808281526020013373ffffffffffffffffffffffffffffffffffffffff16815260200160008152602001600073ffffffffffffffffffffffffffffffffffffffff16815260200184426103c191906118bc565b815260200160011515815260200160001515815250600560008381526020019081526020016000206000820151816000015560208201518160010160006101000a81548173ffffffffffffffffffffffffffffffffffffffff021916908373ffffffffffffffffffffffffffffffffffffffff1602179055506040820151816002015560608201518160030160006101000a81548173ffffffffffffffffffffffffffffffffffffffff021916908373ffffffffffffffffffffffffffffffffffffffff1602179055506080820151816004015560a08201518160050160006101000a81548160ff02191690831515021790555060c08201518160050160016101000a81548160ff0219169083151502179055509050503373ffffffffffffffffffffffffffffffffffffffff16817fbf6dc7bdf2f23af5a506fe03ee1221f47d023a2227fbc949c6b812ae44534e6d42864261051e91906118bc565b60405161052c9291906118f0565b60405180910390a380915050919050565b60015481565b600060056000838152602001908152602001600020905080600401544210156105a1576040517f08c379a000000000000000000000000000000000000000000000000000000000815260040161059890611965565b60405180910390fd5b8060050160019054906101000a900460ff16156105f3576040517f08c379a00000000000000000000000000000000000000000000000000000000081526004016105ea906119d1565b60405180910390fd5b60018160050160016101000a81548160ff02191690831515021790555060008160050160006101000a81548160ff021916908315150217905550600073ffffffffffffffffffffffffffffffffffffffff168160030160009054906101000a900473ffffffffffffffffffffffffffffffffffffffff1673ffffffffffffffffffffffffffffffffffffffff16146108085760006103e8600154836002015461069c91906119f1565b6106a69190611a62565b905060008183600201546106ba9190611a93565b905060008054906101000a900473ffffffffffffffffffffffffffffffffffffffff1673ffffffffffffffffffffffffffffffffffffffff166108fc839081150290604051600060405180830381858888f19350505050158015610722573d6000803e3d6000fd5b508260010160009054906101000a900473ffffffffffffffffffffffffffffffffffffffff1673ffffffffffffffffffffffffffffffffffffffff166108fc829081150290604051600060405180830381858888f1935050505015801561078d573d6000803e3d6000fd5b508260030160009054906101000a900473ffffffffffffffffffffffffffffffffffffffff1673ffffffffffffffffffffffffffffffffffffffff16847fc9f72b276a388619c6d185d146697036241880c36654b1a3ffdad07c24038d9985600201546040516107fd9190611447565b60405180910390a350505b5050565b60056020528060005260406000206000915090508060000154908060010160009054906101000a900473ffffffffffffffffffffffffffffffffffffffff16908060020154908060030160009054906101000a900473ffffffffffffffffffffffffffffffffffffffff16908060040154908060050160009054906101000a900460ff16908060050160019054906101000a900460ff16905087565b600080600660008154809291906108be90611874565b91905055905060405180608001604052808281526020013373ffffffffffffffffffffffffffffffffffffffff16815260200184815260200160011515815250600460008381526020019081526020016000206000820151816000015560208201518160010160006101000a81548173ffffffffffffffffffffffffffffffffffffffff021916908373ffffffffffffffffffffffffffffffffffffffff1602179055506040820151816002015560608201518160030160006101000a81548160ff0219169083151502179055509050503373ffffffffffffffffffffffffffffffffffffffff16817f2c179e1e4a2440acecf6f47ee9d109186409daeeab22578623edc7bf37ddbbc1856040516109d69190611447565b60405180910390a380915050919050565b600260003373ffffffffffffffffffffffffffffffffffffffff1673ffffffffffffffffffffffffffffffffffffffff16815260200190815260200160002060010160009054906101000a900460ff1615610a77576040517f08c379a0000000000000000000000000000000000000000000000000000000008152600401610a6e90611b13565b60405180910390fd5b600073ffffffffffffffffffffffffffffffffffffffff16600382604051610a9f9190611b6f565b908152602001604051809103902060009054906101000a900473ffffffffffffffffffffffffffffffffffffffff1673ffffffffffffffffffffffffffffffffffffffff1614610b24576040517f08c379a0000000000000000000000000000000000000000000000000000000008152600401610b1b90611bd2565b60405180910390fd5b604051806040016040528082815260200160011515815250600260003373ffffffffffffffffffffffffffffffffffffffff1673ffffffffffffffffffffffffffffffffffffffff1681526020019081526020016000206000820151816000019081610b909190611dfe565b5060208201518160010160006101000a81548160ff02191690831515021790555090505033600382604051610bc59190611b6f565b908152602001604051809103902060006101000a81548173ffffffffffffffffffffffffffffffffffffffff021916908373ffffffffffffffffffffffffffffffffffffffff1602179055503373ffffffffffffffffffffffffffffffffffffffff167f39ef83e6bbafc70c750263f3e2928eea20a831668bd548353e6cb3c63951a5c082604051610c579190611ed0565b60405180910390a250565b60008054906101000a900473ffffffffffffffffffffffffffffffffffffffff1681565b60006005600083815260200190815260200160002090508060050160009054906101000a900460ff16610cee576040517f08c379a0000000000000000000000000000000000000000000000000000000008152600401610ce590611f3e565b60405180910390fd5b80600401544210610d34576040517f08c379a0000000000000000000000000000000000000000000000000000000008152600401610d2b90611faa565b60405180910390fd5b80600201543411610d7a576040517f08c379a0000000000000000000000000000000000000000000000000000000008152600401610d7190612016565b60405180910390fd5b600073ffffffffffffffffffffffffffffffffffffffff168160030160009054906101000a900473ffffffffffffffffffffffffffffffffffffffff1673ffffffffffffffffffffffffffffffffffffffff1614610e42578060030160009054906101000a900473ffffffffffffffffffffffffffffffffffffffff1673ffffffffffffffffffffffffffffffffffffffff166108fc82600201549081150290604051600060405180830381858888f19350505050158015610e40573d6000803e3d6000fd5b505b348160020181905550338160030160006101000a81548173ffffffffffffffffffffffffffffffffffffffff021916908373ffffffffffffffffffffffffffffffffffffffff1602179055503373ffffffffffffffffffffffffffffffffffffffff16827f0e54eff26401bf69b81b26f60bd85ef47f5d85275c1d268d84f68d6897431c4734604051610ed59190611447565b60405180910390a35050565b60006004600083815260200190815260200160002090508060030160009054906101000a900460ff16610f49576040517f08c379a0000000000000000000000000000000000000000000000000000000008152600401610f4090612082565b60405180910390fd5b8060010160009054906101000a900473ffffffffffffffffffffffffffffffffffffffff1673ffffffffffffffffffffffffffffffffffffffff163373ffffffffffffffffffffffffffffffffffffffff1614610fdb576040517f08c379a0000000000000000000000000000000000000000000000000000000008152600401610fd2906120ee565b60405180910390fd5b60008160030160006101000a81548160ff0219169083151502179055503373ffffffffffffffffffffffffffffffffffffffff16827fb0e83d43e83a64dcafdc683932cc419df21db0fb53f8229925356e7e1f4bf59d60405160405180910390a35050565b60046020528060005260406000206000915090508060000154908060010160009054906101000a900473ffffffffffffffffffffffffffffffffffffffff16908060020154908060030160009054906101000a900460ff16905084565b60026020528060005260406000206000915090508060000180546110c090611c21565b80601f01602080910402602001604051908101604052809291908181526020018280546110ec90611c21565b80156111395780601f1061110e57610100808354040283529160200191611139565b820191906000526020600020905b81548152906001019060200180831161111c57829003601f168201915b5050505050908060010160009054906101000a900460ff16905082565b6003818051602081018201805184825260208301602085012081835280955050505050506000915054906101000a900473ffffffffffffffffffffffffffffffffffffffff1681565b60006004600083815260200190815260200160002090508060030160009054906101000a900460ff16611207576040517f08c379a00000000000000000000000000000000000000000000000000000000081526004016111fe90612082565b60405180910390fd5b806002015434101561124e576040517f08c379a00000000000000000000000000000000000000000000000000000000081526004016112459061215a565b60405180910390fd5b60008160030160006101000a81548160ff02191690831515021790555060006103e86001543461127e91906119f1565b6112889190611a62565b9050600081346112989190611a93565b905060008054906101000a900473ffffffffffffffffffffffffffffffffffffffff1673ffffffffffffffffffffffffffffffffffffffff166108fc839081150290604051600060405180830381858888f19350505050158015611300573d6000803e3d6000fd5b508260010160009054906101000a900473ffffffffffffffffffffffffffffffffffffffff1673ffffffffffffffffffffffffffffffffffffffff166108fc829081150290604051600060405180830381858888f1935050505015801561136b573d6000803e3d6000fd5b503373ffffffffffffffffffffffffffffffffffffffff16847fc7033c1497cdc2dfb1e94c590e8f91815f9cce88da260ebcd7828295e90d2d43346040516113b39190611447565b60405180910390a350505050565b6000604051905090565b600080fd5b600080fd5b6000819050919050565b6113e8816113d5565b81146113f357600080fd5b50565b600081359050611405816113df565b92915050565b600060208284031215611421576114206113cb565b5b600061142f848285016113f6565b91505092915050565b611441816113d5565b82525050565b600060208201905061145c6000830184611438565b92915050565b600073ffffffffffffffffffffffffffffffffffffffff82169050919050565b600061148d82611462565b9050919050565b61149d81611482565b82525050565b60008115159050919050565b6114b8816114a3565b82525050565b600060e0820190506114d3600083018a611438565b6114e06020830189611494565b6114ed6040830188611438565b6114fa6060830187611494565b6115076080830186611438565b61151460a08301856114af565b61152160c08301846114af565b98975050505050505050565b600080fd5b600080fd5b6000601f19601f8301169050919050565b7f4e487b7100000000000000000000000000000000000000000000000000000000600052604160045260246000fd5b61158082611537565b810181811067ffffffffffffffff8211171561159f5761159e611548565b5b80604052505050565b60006115b26113c1565b90506115be8282611577565b919050565b600067ffffffffffffffff8211156115de576115dd611548565b5b6115e782611537565b9050602081019050919050565b82818337600083830152505050565b6000611616611611846115c3565b6115a8565b90508281526020810184848401111561163257611631611532565b5b61163d8482856115f4565b509392505050565b600082601f83011261165a5761165961152d565b5b813561166a848260208601611603565b91505092915050565b600060208284031215611689576116886113cb565b5b600082013567ffffffffffffffff8111156116a7576116a66113d0565b5b6116b384828501611645565b91505092915050565b60006116c782611462565b9050919050565b6116d7816116bc565b82525050565b60006020820190506116f260008301846116ce565b92915050565b600060808201905061170d6000830187611438565b61171a6020830186611494565b6117276040830185611438565b61173460608301846114af565b95945050505050565b611746816116bc565b811461175157600080fd5b50565b6000813590506117638161173d565b92915050565b60006020828403121561177f5761177e6113cb565b5b600061178d84828501611754565b91505092915050565b600081519050919050565b600082825260208201905092915050565b60005b838110156117d05780820151818401526020810190506117b5565b60008484015250505050565b60006117e782611796565b6117f181856117a1565b93506118018185602086016117b2565b61180a81611537565b840191505092915050565b6000604082019050818103600083015261182f81856117dc565b905061183e60208301846114af565b9392505050565b7f4e487b7100000000000000000000000000000000000000000000000000000000600052601160045260246000fd5b600061187f826113d5565b91507fffffffffffffffffffffffffffffffffffffffffffffffffffffffffffffffff82036118b1576118b0611845565b5b600182019050919050565b60006118c7826113d5565b91506118d2836113d5565b92508282019050808211156118ea576118e9611845565b5b92915050565b60006040820190506119056000830185611438565b6119126020830184611438565b9392505050565b7f41756374696f6e207374696c6c206c6976650000000000000000000000000000600082015250565b600061194f6012836117a1565b915061195a82611919565b602082019050919050565b6000602082019050818103600083015261197e81611942565b9050919050565b7f416c726561647920736574746c65640000000000000000000000000000000000600082015250565b60006119bb600f836117a1565b91506119c682611985565b602082019050919050565b600060208201905081810360008301526119ea816119ae565b9050919050565b60006119fc826113d5565b9150611a07836113d5565b9250828202611a15816113d5565b91508282048414831517611a2c57611a2b611845565b5b5092915050565b7f4e487b7100000000000000000000000000000000000000000000000000000000600052601260045260246000fd5b6000611a6d826113d5565b9150611a78836113d5565b925082611a8857611a87611a33565b5b828204905092915050565b6000611a9e826113d5565b9150611aa9836113d5565b9250828203905081811115611ac157611ac0611845565b5b92915050565b7f4964656e7469747920616c726561647920636c61696d65640000000000000000600082015250565b6000611afd6018836117a1565b9150611b0882611ac7565b602082019050919050565b60006020820190508181036000830152611b2c81611af0565b9050919050565b600081905092915050565b6000611b4982611796565b611b538185611b33565b9350611b638185602086016117b2565b80840191505092915050565b6000611b7b8284611b3e565b915081905092915050565b7f557365726e616d6520616c72656164792074616b656e00000000000000000000600082015250565b6000611bbc6016836117a1565b9150611bc782611b86565b602082019050919050565b60006020820190508181036000830152611beb81611baf565b9050919050565b7f4e487b7100000000000000000000000000000000000000000000000000000000600052602260045260246000fd5b60006002820490506001821680611c3957607f821691505b602082108103611c4c57611c4b611bf2565b5b50919050565b60008190508160005260206000209050919050565b60006020601f8301049050919050565b600082821b905092915050565b600060088302611cb47fffffffffffffffffffffffffffffffffffffffffffffffffffffffffffffffff82611c77565b611cbe8683611c77565b95508019841693508086168417925050509392505050565b6000819050919050565b6000611cfb611cf6611cf1846113d5565b611cd6565b6113d5565b9050919050565b6000819050919050565b611d1583611ce0565b611d29611d2182611d02565b848454611c84565b825550505050565b600090565b611d3e611d31565b611d49818484611d0c565b505050565b5b81811015611d6d57611d62600082611d36565b600181019050611d4f565b5050565b601f821115611db257611d8381611c52565b611d8c84611c67565b81016020851015611d9b578190505b611daf611da785611c67565b830182611d4e565b50505b505050565b600082821c905092915050565b6000611dd560001984600802611db7565b1980831691505092915050565b6000611dee8383611dc4565b9150826002028217905092915050565b611e0782611796565b67ffffffffffffffff811115611e2057611e1f611548565b5b611e2a8254611c21565b611e35828285611d71565b600060209050601f831160018114611e685760008415611e56578287015190505b611e608582611de2565b865550611ec8565b601f198416611e7686611c52565b60005b82811015611e9e57848901518255600182019150602085019450602081019050611e79565b86831015611ebb5784890151611eb7601f891682611dc4565b8355505b6001600288020188555050505b505050505050565b60006020820190508181036000830152611eea81846117dc565b905092915050565b7f41756374696f6e206e6f74206163746976650000000000000000000000000000600082015250565b6000611f286012836117a1565b9150611f3382611ef2565b602082019050919050565b60006020820190508181036000830152611f5781611f1b565b9050919050565b7f41756374696f6e20656e64656400000000000000000000000000000000000000600082015250565b6000611f94600d836117a1565b9150611f9f82611f5e565b602082019050919050565b60006020820190508181036000830152611fc381611f87565b9050919050565b7f42696420746f6f206c6f77000000000000000000000000000000000000000000600082015250565b6000612000600b836117a1565b915061200b82611fca565b602082019050919050565b6000602082019050818103600083015261202f81611ff3565b9050919050565b7f4c697374696e67206e6f74206163746976650000000000000000000000000000600082015250565b600061206c6012836117a1565b915061207782612036565b602082019050919050565b6000602082019050818103600083015261209b8161205f565b9050919050565b7f4f6e6c792073656c6c65722063616e2064656c69737400000000000000000000600082015250565b60006120d86016836117a1565b91506120e3826120a2565b602082019050919050565b60006020820190508181036000830152612107816120cb565b9050919050565b7f496e73756666696369656e742066756e64730000000000000000000000000000600082015250565b60006121446012836117a1565b915061214f8261210e565b602082019050919050565b6000602082019050818103600083015261217381612137565b905091905056fea2646970667358221220ad5b57ea530460b8b5162e2a70531bb91b83d8b3afcdcaee8078bf9bd79df84364736f6c63430008130033",
  "linkReferences": {},
  "deployedLinkReferences": {}
}